{
  "_format": "hh-sol-artifact-1",
  "contractName": "SocialToken",
  "sourceName": "contracts/SocialToken.sol",
  "abi": [
    {
      "inputs": [
        {
          "internalType": "string",
          "name": "name",
          "type": "string"
        },
        {
          "internalType": "string",
          "name": "symbol",
          "type": "string"
        }
      ],
      "stateMutability": "nonpayable",
      "type": "constructor"
    },
    {
      "inputs": [],
      "name": "ECDSAInvalidSignature",
      "type": "error"
    },
    {
      "inputs": [
        {
          "internalType": "uint256",
          "name": "length",
          "type": "uint256"
        }
      ],
      "name": "ECDSAInvalidSignatureLength",
      "type": "error"
    },
    {
      "inputs": [
        {
          "internalType": "bytes32",
          "name": "s",
          "type": "bytes32"
        }
      ],
      "name": "ECDSAInvalidSignatureS",
      "type": "error"
    },
    {
      "inputs": [
        {
          "internalType": "address",
          "name": "spender",
          "type": "address"
        },
        {
          "internalType": "uint256",
          "name": "allowance",
          "type": "uint256"
        },
        {
          "internalType": "uint256",
          "name": "needed",
          "type": "uint256"
        }
      ],
      "name": "ERC20InsufficientAllowance",
      "type": "error"
    },
    {
      "inputs": [
        {
          "internalType": "address",
          "name": "sender",
          "type": "address"
        },
        {
          "internalType": "uint256",
          "name": "balance",
          "type": "uint256"
        },
        {
          "internalType": "uint256",
          "name": "needed",
          "type": "uint256"
        }
      ],
      "name": "ERC20InsufficientBalance",
      "type": "error"
    },
    {
      "inputs": [
        {
          "internalType": "address",
          "name": "approver",
          "type": "address"
        }
      ],
      "name": "ERC20InvalidApprover",
      "type": "error"
    },
    {
      "inputs": [
        {
          "internalType": "address",
          "name": "receiver",
          "type": "address"
        }
      ],
      "name": "ERC20InvalidReceiver",
      "type": "error"
    },
    {
      "inputs": [
        {
          "internalType": "address",
          "name": "sender",
          "type": "address"
        }
      ],
      "name": "ERC20InvalidSender",
      "type": "error"
    },
    {
      "inputs": [
        {
          "internalType": "address",
          "name": "spender",
          "type": "address"
        }
      ],
      "name": "ERC20InvalidSpender",
      "type": "error"
    },
    {
      "inputs": [
        {
          "internalType": "uint256",
          "name": "deadline",
          "type": "uint256"
        }
      ],
      "name": "ERC2612ExpiredSignature",
      "type": "error"
    },
    {
      "inputs": [
        {
          "internalType": "address",
          "name": "signer",
          "type": "address"
        },
        {
          "internalType": "address",
          "name": "owner",
          "type": "address"
        }
      ],
      "name": "ERC2612InvalidSigner",
      "type": "error"
    },
    {
      "inputs": [
        {
          "internalType": "address",
          "name": "account",
          "type": "address"
        },
        {
          "internalType": "uint256",
          "name": "currentNonce",
          "type": "uint256"
        }
      ],
      "name": "InvalidAccountNonce",
      "type": "error"
    },
    {
      "inputs": [],
      "name": "InvalidShortString",
      "type": "error"
    },
    {
      "inputs": [
        {
          "internalType": "address",
          "name": "owner",
          "type": "address"
        }
      ],
      "name": "OwnableInvalidOwner",
      "type": "error"
    },
    {
      "inputs": [
        {
          "internalType": "address",
          "name": "account",
          "type": "address"
        }
      ],
      "name": "OwnableUnauthorizedAccount",
      "type": "error"
    },
    {
      "inputs": [
        {
          "internalType": "string",
          "name": "str",
          "type": "string"
        }
      ],
      "name": "StringTooLong",
      "type": "error"
    },
    {
      "anonymous": false,
      "inputs": [
        {
          "indexed": true,
          "internalType": "address",
          "name": "owner",
          "type": "address"
        },
        {
          "indexed": true,
          "internalType": "address",
          "name": "spender",
          "type": "address"
        },
        {
          "indexed": false,
          "internalType": "uint256",
          "name": "value",
          "type": "uint256"
        }
      ],
      "name": "Approval",
      "type": "event"
    },
    {
      "anonymous": false,
      "inputs": [],
      "name": "EIP712DomainChanged",
      "type": "event"
    },
    {
      "anonymous": false,
      "inputs": [
        {
          "indexed": true,
          "internalType": "address",
          "name": "previousOwner",
          "type": "address"
        },
        {
          "indexed": true,
          "internalType": "address",
          "name": "newOwner",
          "type": "address"
        }
      ],
      "name": "OwnershipTransferred",
      "type": "event"
    },
    {
      "anonymous": false,
      "inputs": [
        {
          "indexed": true,
          "internalType": "address",
          "name": "from",
          "type": "address"
        },
        {
          "indexed": true,
          "internalType": "address",
          "name": "to",
          "type": "address"
        },
        {
          "indexed": false,
          "internalType": "uint256",
          "name": "value",
          "type": "uint256"
        }
      ],
      "name": "Transfer",
      "type": "event"
    },
    {
      "inputs": [],
      "name": "DOMAIN_SEPARATOR",
      "outputs": [
        {
          "internalType": "bytes32",
          "name": "",
          "type": "bytes32"
        }
      ],
      "stateMutability": "view",
      "type": "function"
    },
    {
      "inputs": [
        {
          "internalType": "address",
          "name": "owner",
          "type": "address"
        },
        {
          "internalType": "address",
          "name": "spender",
          "type": "address"
        }
      ],
      "name": "allowance",
      "outputs": [
        {
          "internalType": "uint256",
          "name": "",
          "type": "uint256"
        }
      ],
      "stateMutability": "view",
      "type": "function"
    },
    {
      "inputs": [
        {
          "internalType": "address",
          "name": "spender",
          "type": "address"
        },
        {
          "internalType": "uint256",
          "name": "value",
          "type": "uint256"
        }
      ],
      "name": "approve",
      "outputs": [
        {
          "internalType": "bool",
          "name": "",
          "type": "bool"
        }
      ],
      "stateMutability": "nonpayable",
      "type": "function"
    },
    {
      "inputs": [
        {
          "internalType": "address",
          "name": "account",
          "type": "address"
        }
      ],
      "name": "balanceOf",
      "outputs": [
        {
          "internalType": "uint256",
          "name": "",
          "type": "uint256"
        }
      ],
      "stateMutability": "view",
      "type": "function"
    },
    {
      "inputs": [],
      "name": "decimals",
      "outputs": [
        {
          "internalType": "uint8",
          "name": "",
          "type": "uint8"
        }
      ],
      "stateMutability": "view",
      "type": "function"
    },
    {
      "inputs": [],
      "name": "eip712Domain",
      "outputs": [
        {
          "internalType": "bytes1",
          "name": "fields",
          "type": "bytes1"
        },
        {
          "internalType": "string",
          "name": "name",
          "type": "string"
        },
        {
          "internalType": "string",
          "name": "version",
          "type": "string"
        },
        {
          "internalType": "uint256",
          "name": "chainId",
          "type": "uint256"
        },
        {
          "internalType": "address",
          "name": "verifyingContract",
          "type": "address"
        },
        {
          "internalType": "bytes32",
          "name": "salt",
          "type": "bytes32"
        },
        {
          "internalType": "uint256[]",
          "name": "extensions",
          "type": "uint256[]"
        }
      ],
      "stateMutability": "view",
      "type": "function"
    },
    {
      "inputs": [
        {
          "internalType": "address",
          "name": "to",
          "type": "address"
        },
        {
          "internalType": "uint256",
          "name": "amount",
          "type": "uint256"
        }
      ],
      "name": "mint",
      "outputs": [],
      "stateMutability": "nonpayable",
      "type": "function"
    },
    {
      "inputs": [],
      "name": "name",
      "outputs": [
        {
          "internalType": "string",
          "name": "",
          "type": "string"
        }
      ],
      "stateMutability": "view",
      "type": "function"
    },
    {
      "inputs": [
        {
          "internalType": "address",
          "name": "owner",
          "type": "address"
        }
      ],
      "name": "nonces",
      "outputs": [
        {
          "internalType": "uint256",
          "name": "",
          "type": "uint256"
        }
      ],
      "stateMutability": "view",
      "type": "function"
    },
    {
      "inputs": [],
      "name": "owner",
      "outputs": [
        {
          "internalType": "address",
          "name": "",
          "type": "address"
        }
      ],
      "stateMutability": "view",
      "type": "function"
    },
    {
      "inputs": [
        {
          "internalType": "address",
          "name": "owner",
          "type": "address"
        },
        {
          "internalType": "address",
          "name": "spender",
          "type": "address"
        },
        {
          "internalType": "uint256",
          "name": "value",
          "type": "uint256"
        },
        {
          "internalType": "uint256",
          "name": "deadline",
          "type": "uint256"
        },
        {
          "internalType": "uint8",
          "name": "v",
          "type": "uint8"
        },
        {
          "internalType": "bytes32",
          "name": "r",
          "type": "bytes32"
        },
        {
          "internalType": "bytes32",
          "name": "s",
          "type": "bytes32"
        }
      ],
      "name": "permit",
      "outputs": [],
      "stateMutability": "nonpayable",
      "type": "function"
    },
    {
      "inputs": [],
      "name": "renounceOwnership",
      "outputs": [],
      "stateMutability": "nonpayable",
      "type": "function"
    },
    {
      "inputs": [],
      "name": "symbol",
      "outputs": [
        {
          "internalType": "string",
          "name": "",
          "type": "string"
        }
      ],
      "stateMutability": "view",
      "type": "function"
    },
    {
      "inputs": [],
      "name": "totalSupply",
      "outputs": [
        {
          "internalType": "uint256",
          "name": "",
          "type": "uint256"
        }
      ],
      "stateMutability": "view",
      "type": "function"
    },
    {
      "inputs": [
        {
          "internalType": "address",
          "name": "to",
          "type": "address"
        },
        {
          "internalType": "uint256",
          "name": "value",
          "type": "uint256"
        }
      ],
      "name": "transfer",
      "outputs": [
        {
          "internalType": "bool",
          "name": "",
          "type": "bool"
        }
      ],
      "stateMutability": "nonpayable",
      "type": "function"
    },
    {
      "inputs": [
        {
          "internalType": "address",
          "name": "from",
          "type": "address"
        },
        {
          "internalType": "address",
          "name": "to",
          "type": "address"
        },
        {
          "internalType": "uint256",
          "name": "value",
          "type": "uint256"
        }
      ],
      "name": "transferFrom",
      "outputs": [
        {
          "internalType": "bool",
          "name": "",
          "type": "bool"
        }
      ],
      "stateMutability": "nonpayable",
      "type": "function"
    },
    {
      "inputs": [
        {
          "internalType": "address",
          "name": "newOwner",
          "type": "address"
        }
      ],
      "name": "transferOwnership",
      "outputs": [],
      "stateMutability": "nonpayable",
      "type": "function"
    }
  ],
  "bytecode": "0x6101606040523480156200001257600080fd5b506040516200197f3803806200197f8339810160408190526200003591620004a4565b6040805180820190915260018152603160f81b60208201528290819033828560036200006283826200059f565b5060046200007182826200059f565b5050506001600160a01b038116620000a457604051631e4fbdf760e01b8152600060048201526024015b60405180910390fd5b620000af8162000198565b50620000bd826006620001ea565b61012052620000ce816007620001ea565b61014052815160208084019190912060e052815190820120610100524660a0526200015c60e05161010051604080517f8b73c3c69bb8fe3d512ecc4cf759cc79239f7b179b0ffacaa9a75d522b39400f60208201529081019290925260608201524660808201523060a082015260009060c00160405160208183030381529060405280519060200120905090565b60805250503060c08190526200019091506200017b6012600a6200077e565b6200018a90620f424062000796565b62000223565b505062000820565b600580546001600160a01b038381166001600160a01b0319831681179093556040519116919082907f8be0079c531659141344cd1fd0a4f28419497f9722a3daafe3b4186f6b6457e090600090a35050565b60006020835110156200020a57620002028362000261565b90506200021d565b816200021784826200059f565b5060ff90505b92915050565b6001600160a01b0382166200024f5760405163ec442f0560e01b8152600060048201526024016200009b565b6200025d60008383620002a4565b5050565b600080829050601f815111156200028f578260405163305a27a960e01b81526004016200009b9190620007b0565b80516200029c82620007e5565b179392505050565b6001600160a01b038316620002d3578060026000828254620002c791906200080a565b90915550620003479050565b6001600160a01b03831660009081526020819052604090205481811015620003285760405163391434e360e21b81526001600160a01b038516600482015260248101829052604481018390526064016200009b565b6001600160a01b03841660009081526020819052604090209082900390555b6001600160a01b038216620003655760028054829003905562000384565b6001600160a01b03821660009081526020819052604090208054820190555b816001600160a01b0316836001600160a01b03167fddf252ad1be2c89b69c2b068fc378daa952ba7f163c4a11628f55a4df523b3ef83604051620003ca91815260200190565b60405180910390a3505050565b634e487b7160e01b600052604160045260246000fd5b60005b838110156200040a578181015183820152602001620003f0565b50506000910152565b600082601f8301126200042557600080fd5b81516001600160401b0380821115620004425762000442620003d7565b604051601f8301601f19908116603f011681019082821181831017156200046d576200046d620003d7565b816040528381528660208588010111156200048757600080fd5b6200049a846020830160208901620003ed565b9695505050505050565b60008060408385031215620004b857600080fd5b82516001600160401b0380821115620004d057600080fd5b620004de8683870162000413565b93506020850151915080821115620004f557600080fd5b50620005048582860162000413565b9150509250929050565b600181811c908216806200052357607f821691505b6020821081036200054457634e487b7160e01b600052602260045260246000fd5b50919050565b601f8211156200059a576000816000526020600020601f850160051c81016020861015620005755750805b601f850160051c820191505b81811015620005965782815560010162000581565b5050505b505050565b81516001600160401b03811115620005bb57620005bb620003d7565b620005d381620005cc84546200050e565b846200054a565b602080601f8311600181146200060b5760008415620005f25750858301515b600019600386901b1c1916600185901b17855562000596565b600085815260208120601f198616915b828110156200063c578886015182559484019460019091019084016200061b565b50858210156200065b5787850151600019600388901b60f8161c191681555b5050505050600190811b01905550565b634e487b7160e01b600052601160045260246000fd5b600181815b80851115620006c2578160001904821115620006a657620006a66200066b565b80851615620006b457918102915b93841c939080029062000686565b509250929050565b600082620006db575060016200021d565b81620006ea575060006200021d565b81600181146200070357600281146200070e576200072e565b60019150506200021d565b60ff8411156200072257620007226200066b565b50506001821b6200021d565b5060208310610133831016604e8410600b841016171562000753575081810a6200021d565b6200075f838362000681565b80600019048211156200077657620007766200066b565b029392505050565b60006200078f60ff841683620006ca565b9392505050565b80820281158282048414176200021d576200021d6200066b565b6020815260008251806020840152620007d1816040850160208701620003ed565b601f01601f19169190910160400192915050565b80516020808301519190811015620005445760001960209190910360031b1b16919050565b808201808211156200021d576200021d6200066b565b60805160a05160c05160e0516101005161012051610140516111046200087b60003960006108cc0152600061089f015260006107920152600061076a015260006106c5015260006106ef0152600061071901526111046000f3fe608060405234801561001057600080fd5b506004361061010b5760003560e01c8063715018a6116100a257806395d89b411161007157806395d89b411461021c578063a9059cbb14610224578063d505accf14610237578063dd62ed3e1461024a578063f2fde38b1461028357600080fd5b8063715018a6146101cb5780637ecebe00146101d357806384b0196e146101e65780638da5cb5b1461020157600080fd5b8063313ce567116100de578063313ce567146101765780633644e5151461018557806340c10f191461018d57806370a08231146101a257600080fd5b806306fdde0314610110578063095ea7b31461012e57806318160ddd1461015157806323b872dd14610163575b600080fd5b610118610296565b6040516101259190610e67565b60405180910390f35b61014161013c366004610e9d565b610328565b6040519015158152602001610125565b6002545b604051908152602001610125565b610141610171366004610ec7565b610342565b60405160128152602001610125565b610155610366565b6101a061019b366004610e9d565b610375565b005b6101556101b0366004610f03565b6001600160a01b031660009081526020819052604090205490565b6101a061038b565b6101556101e1366004610f03565b61039f565b6101ee6103bd565b6040516101259796959493929190610f1e565b6005546040516001600160a01b039091168152602001610125565b610118610403565b610141610232366004610e9d565b610412565b6101a0610245366004610fb7565b610420565b61015561025836600461102a565b6001600160a01b03918216600090815260016020908152604080832093909416825291909152205490565b6101a0610291366004610f03565b61055f565b6060600380546102a59061105d565b80601f01602080910402602001604051908101604052809291908181526020018280546102d19061105d565b801561031e5780601f106102f35761010080835404028352916020019161031e565b820191906000526020600020905b81548152906001019060200180831161030157829003601f168201915b5050505050905090565b6000336103368185856105c9565b60019150505b92915050565b6000336103508582856105db565b61035b858585610659565b506001949350505050565b60006103706106b8565b905090565b61037d6107e3565b6103878282610810565b5050565b6103936107e3565b61039d6000610846565b565b6001600160a01b03811660009081526008602052604081205461033c565b6000606080600080600060606103d1610898565b6103d96108c5565b60408051600080825260208201909252600f60f81b9b939a50919850469750309650945092509050565b6060600480546102a59061105d565b600033610336818585610659565b834211156104495760405163313c898160e11b8152600481018590526024015b60405180910390fd5b60007f6e71edae12b1b97f4d1f60370fef10105fa2faae0126114a169c64845d6126c98888886104968c6001600160a01b0316600090815260086020526040902080546001810190915590565b6040805160208101969096526001600160a01b0394851690860152929091166060840152608083015260a082015260c0810186905260e00160405160208183030381529060405280519060200120905060006104f1826108f2565b905060006105018287878761091f565b9050896001600160a01b0316816001600160a01b031614610548576040516325c0072360e11b81526001600160a01b0380831660048301528b166024820152604401610440565b6105538a8a8a6105c9565b50505050505050505050565b6105676107e3565b6001600160a01b0381166105bd5760405162461bcd60e51b815260206004820152601d60248201527f4e6577206f776e657220697320746865207a65726f20616464726573730000006044820152606401610440565b6105c68161094d565b50565b6105d68383836001610988565b505050565b6001600160a01b038381166000908152600160209081526040808320938616835292905220546000198114610653578181101561064457604051637dc7a0d960e11b81526001600160a01b03841660048201526024810182905260448101839052606401610440565b61065384848484036000610988565b50505050565b6001600160a01b03831661068357604051634b637e8f60e11b815260006004820152602401610440565b6001600160a01b0382166106ad5760405163ec442f0560e01b815260006004820152602401610440565b6105d6838383610a5d565b6000306001600160a01b037f00000000000000000000000000000000000000000000000000000000000000001614801561071157507f000000000000000000000000000000000000000000000000000000000000000046145b1561073b57507f000000000000000000000000000000000000000000000000000000000000000090565b610370604080517f8b73c3c69bb8fe3d512ecc4cf759cc79239f7b179b0ffacaa9a75d522b39400f60208201527f0000000000000000000000000000000000000000000000000000000000000000918101919091527f000000000000000000000000000000000000000000000000000000000000000060608201524660808201523060a082015260009060c00160405160208183030381529060405280519060200120905090565b6005546001600160a01b0316331461039d5760405163118cdaa760e01b8152336004820152602401610440565b6001600160a01b03821661083a5760405163ec442f0560e01b815260006004820152602401610440565b61038760008383610a5d565b600580546001600160a01b038381166001600160a01b0319831681179093556040519116919082907f8be0079c531659141344cd1fd0a4f28419497f9722a3daafe3b4186f6b6457e090600090a35050565b60606103707f00000000000000000000000000000000000000000000000000000000000000006006610b87565b60606103707f00000000000000000000000000000000000000000000000000000000000000006007610b87565b600061033c6108ff6106b8565b8360405161190160f01b8152600281019290925260228201526042902090565b60008060008061093188888888610c32565b9250925092506109418282610d01565b50909695505050505050565b6109556107e3565b6001600160a01b03811661097f57604051631e4fbdf760e01b815260006004820152602401610440565b6105c681610846565b6001600160a01b0384166109b25760405163e602df0560e01b815260006004820152602401610440565b6001600160a01b0383166109dc57604051634a1406b160e11b815260006004820152602401610440565b6001600160a01b038085166000908152600160209081526040808320938716835292905220829055801561065357826001600160a01b0316846001600160a01b03167f8c5be1e5ebec7d5bd14f71427d1e84f3dd0314c0f7b2291e5b200ac8c7c3b92584604051610a4f91815260200190565b60405180910390a350505050565b6001600160a01b038316610a88578060026000828254610a7d9190611097565b90915550610afa9050565b6001600160a01b03831660009081526020819052604090205481811015610adb5760405163391434e360e21b81526001600160a01b03851660048201526024810182905260448101839052606401610440565b6001600160a01b03841660009081526020819052604090209082900390555b6001600160a01b038216610b1657600280548290039055610b35565b6001600160a01b03821660009081526020819052604090208054820190555b816001600160a01b0316836001600160a01b03167fddf252ad1be2c89b69c2b068fc378daa952ba7f163c4a11628f55a4df523b3ef83604051610b7a91815260200190565b60405180910390a3505050565b606060ff8314610ba157610b9a83610dba565b905061033c565b818054610bad9061105d565b80601f0160208091040260200160405190810160405280929190818152602001828054610bd99061105d565b8015610c265780601f10610bfb57610100808354040283529160200191610c26565b820191906000526020600020905b815481529060010190602001808311610c0957829003601f168201915b5050505050905061033c565b600080807f7fffffffffffffffffffffffffffffff5d576e7357a4501ddfe92f46681b20a0841115610c6d5750600091506003905082610cf7565b604080516000808252602082018084528a905260ff891692820192909252606081018790526080810186905260019060a0016020604051602081039080840390855afa158015610cc1573d6000803e3d6000fd5b5050604051601f1901519150506001600160a01b038116610ced57506000925060019150829050610cf7565b9250600091508190505b9450945094915050565b6000826003811115610d1557610d156110b8565b03610d1e575050565b6001826003811115610d3257610d326110b8565b03610d505760405163f645eedf60e01b815260040160405180910390fd5b6002826003811115610d6457610d646110b8565b03610d855760405163fce698f760e01b815260048101829052602401610440565b6003826003811115610d9957610d996110b8565b03610387576040516335e2f38360e21b815260048101829052602401610440565b60606000610dc783610df9565b604080516020808252818301909252919250600091906020820181803683375050509182525060208101929092525090565b600060ff8216601f81111561033c57604051632cd44ac360e21b815260040160405180910390fd5b6000815180845260005b81811015610e4757602081850181015186830182015201610e2b565b506000602082860101526020601f19601f83011685010191505092915050565b602081526000610e7a6020830184610e21565b9392505050565b80356001600160a01b0381168114610e9857600080fd5b919050565b60008060408385031215610eb057600080fd5b610eb983610e81565b946020939093013593505050565b600080600060608486031215610edc57600080fd5b610ee584610e81565b9250610ef360208501610e81565b9150604084013590509250925092565b600060208284031215610f1557600080fd5b610e7a82610e81565b60ff60f81b881681526000602060e06020840152610f3f60e084018a610e21565b8381036040850152610f51818a610e21565b606085018990526001600160a01b038816608086015260a0850187905284810360c08601528551808252602080880193509091019060005b81811015610fa557835183529284019291840191600101610f89565b50909c9b505050505050505050505050565b600080600080600080600060e0888a031215610fd257600080fd5b610fdb88610e81565b9650610fe960208901610e81565b95506040880135945060608801359350608088013560ff8116811461100d57600080fd5b9699959850939692959460a0840135945060c09093013592915050565b6000806040838503121561103d57600080fd5b61104683610e81565b915061105460208401610e81565b90509250929050565b600181811c9082168061107157607f821691505b60208210810361109157634e487b7160e01b600052602260045260246000fd5b50919050565b8082018082111561033c57634e487b7160e01b600052601160045260246000fd5b634e487b7160e01b600052602160045260246000fdfea2646970667358221220e8b6f3b90c87fc19e148fa54c231c90904426fdc290264e454c020e3c0cfdf7564736f6c63430008180033",
  "linkReferences": {},
  "deployedLinkReferences": {}
}