{
  "_format": "hh-sol-artifact-1",
  "contractName": "AskAround",
  "sourceName": "contracts/AskAround.sol",
  "abi": [
    {
      "inputs": [
        {
          "internalType": "contract IERC20",
          "name": "_token",
          "type": "address"
        }
      ],
      "stateMutability": "nonpayable",
      "type": "constructor"
    },
    {
      "inputs": [
        {
          "internalType": "address",
          "name": "owner",
          "type": "address"
        }
      ],
      "name": "OwnableInvalidOwner",
      "type": "error"
    },
    {
      "inputs": [
        {
          "internalType": "address",
          "name": "account",
          "type": "address"
        }
      ],
      "name": "OwnableUnauthorizedAccount",
      "type": "error"
    },
    {
      "inputs": [],
      "name": "ReentrancyGuardReentrantCall",
      "type": "error"
    },
    {
      "anonymous": false,
      "inputs": [
        {
          "indexed": true,
          "internalType": "address",
          "name": "answerer",
          "type": "address"
        },
        {
          "indexed": true,
          "internalType": "uint256",
          "name": "questionId",
          "type": "uint256"
        },
        {
          "indexed": false,
          "internalType": "uint256",
          "name": "answerId",
          "type": "uint256"
        },
        {
          "indexed": false,
          "internalType": "string",
          "name": "content",
          "type": "string"
        }
      ],
      "name": "AnswerSubmitted",
      "type": "event"
    },
    {
      "anonymous": false,
      "inputs": [
        {
          "indexed": true,
          "internalType": "address",
          "name": "asker",
          "type": "address"
        },
        {
          "indexed": true,
          "internalType": "uint256",
          "name": "questionId",
          "type": "uint256"
        },
        {
          "indexed": false,
          "internalType": "uint256",
          "name": "answerId",
          "type": "uint256"
        }
      ],
      "name": "BestAnswerSelected",
      "type": "event"
    },
    {
      "anonymous": false,
      "inputs": [
        {
          "indexed": true,
          "internalType": "address",
          "name": "previousOwner",
          "type": "address"
        },
        {
          "indexed": true,
          "internalType": "address",
          "name": "newOwner",
          "type": "address"
        }
      ],
      "name": "OwnershipTransferred",
      "type": "event"
    },
    {
      "anonymous": false,
      "inputs": [
        {
          "indexed": true,
          "internalType": "address",
          "name": "asker",
          "type": "address"
        },
        {
          "indexed": true,
          "internalType": "uint256",
          "name": "questionId",
          "type": "uint256"
        },
        {
          "indexed": false,
          "internalType": "string",
          "name": "content",
          "type": "string"
        },
        {
          "indexed": false,
          "internalType": "string",
          "name": "tag",
          "type": "string"
        }
      ],
      "name": "QuestionAsked",
      "type": "event"
    },
    {
      "anonymous": false,
      "inputs": [
        {
          "indexed": true,
          "internalType": "address",
          "name": "user",
          "type": "address"
        },
        {
          "indexed": false,
          "internalType": "string",
          "name": "tag",
          "type": "string"
        },
        {
          "indexed": false,
          "internalType": "uint256",
          "name": "rewardAmount",
          "type": "uint256"
        },
        {
          "indexed": false,
          "internalType": "uint256",
          "name": "timestamp",
          "type": "uint256"
        }
      ],
      "name": "RewardClaimed",
      "type": "event"
    },
    {
      "anonymous": false,
      "inputs": [
        {
          "indexed": true,
          "internalType": "address",
          "name": "user",
          "type": "address"
        },
        {
          "indexed": false,
          "internalType": "string",
          "name": "tag",
          "type": "string"
        },
        {
          "indexed": false,
          "internalType": "uint256",
          "name": "stake",
          "type": "uint256"
        },
        {
          "indexed": false,
          "internalType": "uint256",
          "name": "timestamp",
          "type": "uint256"
        }
      ],
      "name": "TagAdded",
      "type": "event"
    },
    {
      "anonymous": false,
      "inputs": [
        {
          "indexed": true,
          "internalType": "address",
          "name": "user",
          "type": "address"
        },
        {
          "indexed": false,
          "internalType": "string",
          "name": "tag",
          "type": "string"
        },
        {
          "indexed": false,
          "internalType": "uint256",
          "name": "stake",
          "type": "uint256"
        }
      ],
      "name": "TagRemoved",
      "type": "event"
    },
    {
      "inputs": [],
      "name": "BEST_ANSWER_REWARD",
      "outputs": [
        {
          "internalType": "uint256",
          "name": "",
          "type": "uint256"
        }
      ],
      "stateMutability": "view",
      "type": "function"
    },
    {
      "inputs": [],
      "name": "MAX_TAG_LENGTH",
      "outputs": [
        {
          "internalType": "uint256",
          "name": "",
          "type": "uint256"
        }
      ],
      "stateMutability": "view",
      "type": "function"
    },
    {
      "inputs": [],
      "name": "ONE_MONTH",
      "outputs": [
        {
          "internalType": "uint256",
          "name": "",
          "type": "uint256"
        }
      ],
      "stateMutability": "view",
      "type": "function"
    },
    {
      "inputs": [],
      "name": "REWARD_FOR_ANSWER",
      "outputs": [
        {
          "internalType": "uint256",
          "name": "",
          "type": "uint256"
        }
      ],
      "stateMutability": "view",
      "type": "function"
    },
    {
      "inputs": [],
      "name": "REWARD_FOR_QUESTION",
      "outputs": [
        {
          "internalType": "uint256",
          "name": "",
          "type": "uint256"
        }
      ],
      "stateMutability": "view",
      "type": "function"
    },
    {
      "inputs": [],
      "name": "TAG_STAKE_AMOUNT",
      "outputs": [
        {
          "internalType": "uint256",
          "name": "",
          "type": "uint256"
        }
      ],
      "stateMutability": "view",
      "type": "function"
    },
    {
      "inputs": [
        {
          "internalType": "string",
          "name": "_tag",
          "type": "string"
        }
      ],
      "name": "addTag",
      "outputs": [],
      "stateMutability": "payable",
      "type": "function"
    },
    {
      "inputs": [
        {
          "internalType": "uint256",
          "name": "",
          "type": "uint256"
        },
        {
          "internalType": "uint256",
          "name": "",
          "type": "uint256"
        }
      ],
      "name": "answers",
      "outputs": [
        {
          "internalType": "address",
          "name": "answerer",
          "type": "address"
        },
        {
          "internalType": "string",
          "name": "content",
          "type": "string"
        }
      ],
      "stateMutability": "view",
      "type": "function"
    },
    {
      "inputs": [
        {
          "internalType": "string",
          "name": "_content",
          "type": "string"
        },
        {
          "internalType": "string",
          "name": "_tag",
          "type": "string"
        }
      ],
      "name": "askQuestion",
      "outputs": [],
      "stateMutability": "nonpayable",
      "type": "function"
    },
    {
      "inputs": [
        {
          "internalType": "string",
          "name": "_tag",
          "type": "string"
        }
      ],
      "name": "claimReward",
      "outputs": [],
      "stateMutability": "nonpayable",
      "type": "function"
    },
    {
      "inputs": [
        {
          "internalType": "uint256",
          "name": "questionId",
          "type": "uint256"
        }
      ],
      "name": "getAnswers",
      "outputs": [
        {
          "components": [
            {
              "internalType": "address",
              "name": "answerer",
              "type": "address"
            },
            {
              "internalType": "string",
              "name": "content",
              "type": "string"
            }
          ],
          "internalType": "struct AskAround.Answer[]",
          "name": "",
          "type": "tuple[]"
        }
      ],
      "stateMutability": "view",
      "type": "function"
    },
    {
      "inputs": [],
      "name": "getFirstHundredQuestions",
      "outputs": [
        {
          "components": [
            {
              "internalType": "uint256",
              "name": "id",
              "type": "uint256"
            },
            {
              "internalType": "address",
              "name": "asker",
              "type": "address"
            },
            {
              "internalType": "string",
              "name": "content",
              "type": "string"
            },
            {
              "internalType": "string",
              "name": "tag",
              "type": "string"
            },
            {
              "internalType": "bool",
              "name": "answered",
              "type": "bool"
            },
            {
              "internalType": "uint256",
              "name": "bestAnswerId",
              "type": "uint256"
            }
          ],
          "internalType": "struct AskAround.Question[]",
          "name": "",
          "type": "tuple[]"
        }
      ],
      "stateMutability": "view",
      "type": "function"
    },
    {
      "inputs": [],
      "name": "getFirstTenQuestions",
      "outputs": [
        {
          "components": [
            {
              "internalType": "uint256",
              "name": "id",
              "type": "uint256"
            },
            {
              "internalType": "address",
              "name": "asker",
              "type": "address"
            },
            {
              "internalType": "string",
              "name": "content",
              "type": "string"
            },
            {
              "internalType": "string",
              "name": "tag",
              "type": "string"
            },
            {
              "internalType": "bool",
              "name": "answered",
              "type": "bool"
            },
            {
              "internalType": "uint256",
              "name": "bestAnswerId",
              "type": "uint256"
            }
          ],
          "internalType": "struct AskAround.Question[]",
          "name": "",
          "type": "tuple[]"
        }
      ],
      "stateMutability": "view",
      "type": "function"
    },
    {
      "inputs": [
        {
          "internalType": "string",
          "name": "_tag",
          "type": "string"
        }
      ],
      "name": "getQuestionsByTag",
      "outputs": [
        {
          "components": [
            {
              "internalType": "uint256",
              "name": "id",
              "type": "uint256"
            },
            {
              "internalType": "address",
              "name": "asker",
              "type": "address"
            },
            {
              "internalType": "string",
              "name": "content",
              "type": "string"
            },
            {
              "internalType": "string",
              "name": "tag",
              "type": "string"
            },
            {
              "internalType": "bool",
              "name": "answered",
              "type": "bool"
            },
            {
              "internalType": "uint256",
              "name": "bestAnswerId",
              "type": "uint256"
            }
          ],
          "internalType": "struct AskAround.Question[]",
          "name": "",
          "type": "tuple[]"
        }
      ],
      "stateMutability": "view",
      "type": "function"
    },
    {
      "inputs": [],
      "name": "owner",
      "outputs": [
        {
          "internalType": "address",
          "name": "",
          "type": "address"
        }
      ],
      "stateMutability": "view",
      "type": "function"
    },
    {
      "inputs": [
        {
          "internalType": "uint256",
          "name": "",
          "type": "uint256"
        }
      ],
      "name": "questions",
      "outputs": [
        {
          "internalType": "uint256",
          "name": "id",
          "type": "uint256"
        },
        {
          "internalType": "address",
          "name": "asker",
          "type": "address"
        },
        {
          "internalType": "string",
          "name": "content",
          "type": "string"
        },
        {
          "internalType": "string",
          "name": "tag",
          "type": "string"
        },
        {
          "internalType": "bool",
          "name": "answered",
          "type": "bool"
        },
        {
          "internalType": "uint256",
          "name": "bestAnswerId",
          "type": "uint256"
        }
      ],
      "stateMutability": "view",
      "type": "function"
    },
    {
      "inputs": [
        {
          "internalType": "string",
          "name": "_name",
          "type": "string"
        }
      ],
      "name": "registerUser",
      "outputs": [],
      "stateMutability": "nonpayable",
      "type": "function"
    },
    {
      "inputs": [
        {
          "internalType": "string",
          "name": "_tag",
          "type": "string"
        }
      ],
      "name": "removeTag",
      "outputs": [],
      "stateMutability": "nonpayable",
      "type": "function"
    },
    {
      "inputs": [],
      "name": "renounceOwnership",
      "outputs": [],
      "stateMutability": "nonpayable",
      "type": "function"
    },
    {
      "inputs": [
        {
          "internalType": "uint256",
          "name": "_questionId",
          "type": "uint256"
        },
        {
          "internalType": "uint256",
          "name": "_answerId",
          "type": "uint256"
        }
      ],
      "name": "selectBestAnswer",
      "outputs": [],
      "stateMutability": "nonpayable",
      "type": "function"
    },
    {
      "inputs": [
        {
          "internalType": "address",
          "name": "",
          "type": "address"
        }
      ],
      "name": "stakes",
      "outputs": [
        {
          "internalType": "uint256",
          "name": "",
          "type": "uint256"
        }
      ],
      "stateMutability": "view",
      "type": "function"
    },
    {
      "inputs": [
        {
          "internalType": "uint256",
          "name": "_questionId",
          "type": "uint256"
        },
        {
          "internalType": "string",
          "name": "_content",
          "type": "string"
        }
      ],
      "name": "submitAnswer",
      "outputs": [],
      "stateMutability": "nonpayable",
      "type": "function"
    },
    {
      "inputs": [
        {
          "internalType": "string",
          "name": "",
          "type": "string"
        },
        {
          "internalType": "uint256",
          "name": "",
          "type": "uint256"
        }
      ],
      "name": "tagToQuestions",
      "outputs": [
        {
          "internalType": "uint256",
          "name": "",
          "type": "uint256"
        }
      ],
      "stateMutability": "view",
      "type": "function"
    },
    {
      "inputs": [
        {
          "internalType": "string",
          "name": "",
          "type": "string"
        }
      ],
      "name": "tags",
      "outputs": [
        {
          "internalType": "uint256",
          "name": "userCount",
          "type": "uint256"
        }
      ],
      "stateMutability": "view",
      "type": "function"
    },
    {
      "inputs": [],
      "name": "token",
      "outputs": [
        {
          "internalType": "contract IERC20",
          "name": "",
          "type": "address"
        }
      ],
      "stateMutability": "view",
      "type": "function"
    },
    {
      "inputs": [
        {
          "internalType": "address",
          "name": "newOwner",
          "type": "address"
        }
      ],
      "name": "transferOwnership",
      "outputs": [],
      "stateMutability": "nonpayable",
      "type": "function"
    },
    {
      "inputs": [
        {
          "internalType": "address",
          "name": "",
          "type": "address"
        },
        {
          "internalType": "string",
          "name": "",
          "type": "string"
        }
      ],
      "name": "userTags",
      "outputs": [
        {
          "internalType": "bool",
          "name": "exists",
          "type": "bool"
        },
        {
          "internalType": "uint256",
          "name": "timestamp",
          "type": "uint256"
        },
        {
          "internalType": "uint256",
          "name": "lastClaimed",
          "type": "uint256"
        },
        {
          "internalType": "uint256",
          "name": "bestAnswerCount",
          "type": "uint256"
        }
      ],
      "stateMutability": "view",
      "type": "function"
    },
    {
      "inputs": [
        {
          "internalType": "address",
          "name": "",
          "type": "address"
        }
      ],
      "name": "users",
      "outputs": [
        {
          "internalType": "string",
          "name": "name",
          "type": "string"
        }
      ],
      "stateMutability": "view",
      "type": "function"
    }
  ],
  "bytecode": "0x60806040523480156200001157600080fd5b5060405162002ee538038062002ee58339810160408190526200003491620000e1565b33806200005b57604051631e4fbdf760e01b81526000600482015260240160405180910390fd5b620000668162000091565b5060018055600280546001600160a01b0319166001600160a01b039290921691909117905562000113565b600080546001600160a01b038381166001600160a01b0319831681178455604051919092169283917f8be0079c531659141344cd1fd0a4f28419497f9722a3daafe3b4186f6b6457e09190a35050565b600060208284031215620000f457600080fd5b81516001600160a01b03811681146200010c57600080fd5b9392505050565b612dc280620001236000396000f3fe6080604052600436106101b75760003560e01c80637ade44b9116100ec578063cd7ce8561161008a578063df09e37111610064578063df09e37114610570578063f2fde38b14610590578063f50496f4146105b0578063fc0c546a146105c557600080fd5b8063cd7ce85614610521578063d139aa7414610541578063de0cc45b1461055d57600080fd5b806390a3f588116100c657806390a3f5881461049f578063a87430ba146104bf578063b4ee3b96146104ec578063bb8c97971461050157600080fd5b80637ade44b9146104365780638da5cb5b14610451578063902f31f01461048357600080fd5b806331b1b978116101595780635c0926d5116101335780635c0926d51461035d578063704f1b94146103e1578063705b884514610401578063715018a61461042157600080fd5b806331b1b978146102d657806338fc5104146103085780635368f8531461032557600080fd5b806316934fc41161019557806316934fc4146102375780631e59e02a1461026457806320988cef146102915780632401519c146102a857600080fd5b806301fa3bec146101bc57806303023dc4146101de578063157ec22e14610209575b600080fd5b3480156101c857600080fd5b506101dc6101d7366004612631565b6105e5565b005b3480156101ea57600080fd5b506101f36108a3565b60405161020091906126c8565b60405180910390f35b34801561021557600080fd5b50610229610224366004612787565b610af4565b604051908152602001610200565b34801561024357600080fd5b506102296102523660046127e8565b60086020526000908152604090205481565b34801561027057600080fd5b5061028461027f36600461280a565b610b34565b6040516102009190612823565b34801561029d57600080fd5b5061022962278d0081565b3480156102b457600080fd5b506102c86102c3366004612894565b610c4d565b6040516102009291906128b6565b3480156102e257600080fd5b506102f66102f136600461280a565b610d1d565b604051610200969594939291906128e2565b34801561031457600080fd5b506102296802b5e3af16b188000081565b34801561033157600080fd5b50610229610340366004612934565b805160208183018101805160068252928201919093012091525481565b34801561036957600080fd5b506103bf610378366004612969565b60076020908152600092835260409092208151808301840180519281529084019290930191909120915280546001820154600283015460039093015460ff90921692909184565b6040805194151585526020850193909352918301526060820152608001610200565b3480156103ed57600080fd5b506101dc6103fc366004612934565b610e84565b34801561040d57600080fd5b506101dc61041c3660046129a1565b611021565b34801561042d57600080fd5b506101dc61134b565b34801561044257600080fd5b50610229662386f26fc1000081565b34801561045d57600080fd5b506000546001600160a01b03165b6040516001600160a01b039091168152602001610200565b34801561048f57600080fd5b50610229678ac7230489e8000081565b3480156104ab57600080fd5b506101dc6104ba366004612894565b61135f565b3480156104cb57600080fd5b506104df6104da3660046127e8565b611705565b60405161020091906129fb565b3480156104f857600080fd5b506101f36117a3565b34801561050d57600080fd5b506101dc61051c366004612934565b6119ed565b34801561052d57600080fd5b506101f361053c366004612934565b611c16565b34801561054d57600080fd5b50610229674563918244f4000081565b6101dc61056b366004612934565b611e8f565b34801561057c57600080fd5b506101dc61058b366004612934565b61219d565b34801561059c57600080fd5b506101dc6105ab3660046127e8565b612380565b3480156105bc57600080fd5b50610229600a81565b3480156105d157600080fd5b5060025461046b906001600160a01b031681565b60045482106106355760405162461bcd60e51b8152602060048201526017602482015276145d595cdd1a5bdb88191bd95cc81b9bdd08195e1a5cdd604a1b60448201526064015b60405180910390fd5b60006004838154811061064a5761064a612a0e565b9060005260206000209060060201905060008251116106a55760405162461bcd60e51b8152602060048201526017602482015276436f6e74656e742063616e6e6f7420626520656d70747960481b604482015260640161062c565b336000908152600760205260409081902090516106c6906003840190612a5e565b9081526040519081900360200190205460ff1661073a5760405162461bcd60e51b815260206004820152602c60248201527f5573657220646f6573206e6f742068617665207468652074616720666f72207460448201526b3434b99038bab2b9ba34b7b760a11b606482015260840161062c565b6000838152600560209081526040808320815180830190925233825281830186815281546001808201845592865293909420825160029094020180546001600160a01b0319166001600160a01b03909416939093178355925190928201906107a29082612b25565b5050506000838152600560205260408120546107c090600190612bfb565b60025460405163a9059cbb60e01b8152336004820152674563918244f4000060248201529192506001600160a01b03169063a9059cbb906044016020604051808303816000875af1158015610819573d6000803e3d6000fd5b505050506040513d601f19601f8201168201806040525081019061083d9190612c0e565b6108595760405162461bcd60e51b815260040161062c90612c30565b83336001600160a01b03167fa9553d9d070efe5c4264c023881fed167c0008634664b52054f8839f05a2944a8386604051610895929190612c5f565b60405180910390a350505050565b606060006064600480549050106108bb5760646108bf565b6004545b905060008167ffffffffffffffff8111156108dc576108dc61258e565b60405190808252806020026020018201604052801561091557816020015b61090261254d565b8152602001906001900390816108fa5790505b50905060005b82811015610aed576004818154811061093657610936612a0e565b90600052602060002090600602016040518060c0016040529081600082015481526020016001820160009054906101000a90046001600160a01b03166001600160a01b03166001600160a01b0316815260200160028201805461099890612a24565b80601f01602080910402602001604051908101604052809291908181526020018280546109c490612a24565b8015610a115780601f106109e657610100808354040283529160200191610a11565b820191906000526020600020905b8154815290600101906020018083116109f457829003601f168201915b50505050508152602001600382018054610a2a90612a24565b80601f0160208091040260200160405190810160405280929190818152602001828054610a5690612a24565b8015610aa35780601f10610a7857610100808354040283529160200191610aa3565b820191906000526020600020905b815481529060010190602001808311610a8657829003601f168201915b5050509183525050600482015460ff16151560208201526005909101546040909101528251839083908110610ada57610ada612a0e565b602090810291909101015260010161091b565b5092915050565b81516020818401810180516009825292820191850191909120919052805482908110610b1f57600080fd5b90600052602060002001600091509150505481565b606060056000838152602001908152602001600020805480602002602001604051908101604052809291908181526020016000905b82821015610c42576000848152602090819020604080518082019091526002850290910180546001600160a01b031682526001810180549293919291840191610bb190612a24565b80601f0160208091040260200160405190810160405280929190818152602001828054610bdd90612a24565b8015610c2a5780601f10610bff57610100808354040283529160200191610c2a565b820191906000526020600020905b815481529060010190602001808311610c0d57829003601f168201915b50505050508152505081526020019060010190610b69565b505050509050919050565b60056020528160005260406000208181548110610c6957600080fd5b6000918252602090912060029091020180546001820180546001600160a01b039092169450919250610c9a90612a24565b80601f0160208091040260200160405190810160405280929190818152602001828054610cc690612a24565b8015610d135780601f10610ce857610100808354040283529160200191610d13565b820191906000526020600020905b815481529060010190602001808311610cf657829003601f168201915b5050505050905082565b60048181548110610d2d57600080fd5b60009182526020909120600690910201805460018201546002830180549294506001600160a01b039091169291610d6390612a24565b80601f0160208091040260200160405190810160405280929190818152602001828054610d8f90612a24565b8015610ddc5780601f10610db157610100808354040283529160200191610ddc565b820191906000526020600020905b815481529060010190602001808311610dbf57829003601f168201915b505050505090806003018054610df190612a24565b80601f0160208091040260200160405190810160405280929190818152602001828054610e1d90612a24565b8015610e6a5780601f10610e3f57610100808354040283529160200191610e6a565b820191906000526020600020905b815481529060010190602001808311610e4d57829003601f168201915b505050506004830154600590930154919260ff1691905086565b8051819080610ecc5760405162461bcd60e51b81526020600482015260146024820152734e616d652063616e6e6f7420626520656d70747960601b604482015260640161062c565b6064811115610f105760405162461bcd60e51b815260206004820152601060248201526f4e616d6520697320746f6f206c6f6e6760801b604482015260640161062c565b60005b81811015611001576000838281518110610f2f57610f2f612a0e565b01602001516001600160f81b0319169050604160f81b8110801590610f625750602d60f91b6001600160f81b0319821611155b80610f945750606160f81b6001600160f81b0319821610801590610f945750603d60f91b6001600160f81b0319821611155b80610fac5750600160fd1b6001600160f81b03198216145b610ff85760405162461bcd60e51b815260206004820181905260248201527f4e616d6520636f6e7461696e7320696e76616c69642063686172616374657273604482015260640161062c565b50600101610f13565b5033600090815260036020526040902061101b8482612b25565b50505050565b8060006006826040516110349190612c78565b90815260405190819003602001902054116110865760405162461bcd60e51b8152602060048201526012602482015271151859c8191bd95cc81b9bdd08195e1a5cdd60721b604482015260640161062c565b336000908152600760205260409081902090518391906110a7908390612c78565b9081526040519081900360200190205460ff166110d65760405162461bcd60e51b815260040161062c90612c94565b60008451116111215760405162461bcd60e51b8152602060048201526017602482015276436f6e74656e742063616e6e6f7420626520656d70747960481b604482015260640161062c565b60046040518060c0016040528060048054905060016111409190612ccb565b81523360208083019190915260408083018990526060830188905260006080840181905260a09093018390528454600180820187559584529282902084516006909402019283559083015193820180546001600160a01b0319166001600160a01b03909516949094179093559181015190919060028201906111c29082612b25565b50606082015160038201906111d79082612b25565b5060808201516004828101805460ff19169215159290921790915560a0909201516005909101555460009061120e90600190612bfb565b3360009081526003602090815260408083206001908101805491820181558452919092200182905551909150600990611248908690612c78565b9081526040519081900360209081018220805460018101825560009182529190200182905560025463a9059cbb60e01b8252336004830152678ac7230489e8000060248301526001600160a01b03169063a9059cbb906044016020604051808303816000875af11580156112c0573d6000803e3d6000fd5b505050506040513d601f19601f820116820180604052508101906112e49190612c0e565b6113005760405162461bcd60e51b815260040161062c90612c30565b80336001600160a01b03167f5e7d9da88cb74da283f91a4e189a801bde81025a3ea326e9bd552cfa275aef1f878760405161133c929190612cde565b60405180910390a35050505050565b6113536123bb565b61135d60006123e8565b565b60045482106113aa5760405162461bcd60e51b8152602060048201526017602482015276145d595cdd1a5bdb88191bd95cc81b9bdd08195e1a5cdd604a1b604482015260640161062c565b6000600483815481106113bf576113bf612a0e565b6000918252602090912060069091020160018101549091506001600160a01b031633146114405760405162461bcd60e51b815260206004820152602960248201527f4f6e6c79207468652061736b65722063616e2073656c6563742074686520626560448201526839ba1030b739bbb2b960b91b606482015260840161062c565b60008381526005602052604090205482106114955760405162461bcd60e51b8152602060048201526015602482015274105b9cddd95c88191bd95cc81b9bdd08195e1a5cdd605a1b604482015260640161062c565b60008381526005602052604090208054339190849081106114b8576114b8612a0e565b60009182526020909120600290910201546001600160a01b0316036115385760405162461bcd60e51b815260206004820152603060248201527f43616e6e6f742073656c65637420796f7572206f776e20616e7377657220617360448201526f103a3432903132b9ba1030b739bbb2b960811b606482015260840161062c565b600580820183905560048201805460ff1916600117905560008481526020919091526040812080548490811061157057611570612a0e565b6000918252602090912060029182020154905460405163a9059cbb60e01b81526001600160a01b03928316600482018190526802b5e3af16b18800006024830152935091169063a9059cbb906044016020604051808303816000875af11580156115de573d6000803e3d6000fd5b505050506040513d601f19601f820116820180604052508101906116029190612c0e565b61165d5760405162461bcd60e51b815260206004820152602660248201527f546f6b656e207472616e7366657220746f206265737420616e7377657265722060448201526519985a5b195960d21b606482015260840161062c565b6001600160a01b0381166000908152600760205260408120600480548790811061168957611689612a0e565b90600052602060002090600602016003016040516116a79190612a5e565b9081526020016040518091039020905060018160030160008282546116cc9190612ccb565b9091555050604051848152859033907f6c9459c9d0359f61982fb7b8e0bf72faa35ff72fbc2215158571421546845d509060200161133c565b60036020526000908152604090208054819061172090612a24565b80601f016020809104026020016040519081016040528092919081815260200182805461174c90612a24565b80156117995780601f1061176e57610100808354040283529160200191611799565b820191906000526020600020905b81548152906001019060200180831161177c57829003601f168201915b5050505050905081565b60606000600a600480549050106117bb57600a6117bf565b6004545b905060008167ffffffffffffffff8111156117dc576117dc61258e565b60405190808252806020026020018201604052801561181557816020015b61180261254d565b8152602001906001900390816117fa5790505b50905060005b82811015610aed576004818154811061183657611836612a0e565b90600052602060002090600602016040518060c0016040529081600082015481526020016001820160009054906101000a90046001600160a01b03166001600160a01b03166001600160a01b0316815260200160028201805461189890612a24565b80601f01602080910402602001604051908101604052809291908181526020018280546118c490612a24565b80156119115780601f106118e657610100808354040283529160200191611911565b820191906000526020600020905b8154815290600101906020018083116118f457829003601f168201915b5050505050815260200160038201805461192a90612a24565b80601f016020809104026020016040519081016040528092919081815260200182805461195690612a24565b80156119a35780601f10611978576101008083540402835291602001916119a3565b820191906000526020600020905b81548152906001019060200180831161198657829003601f168201915b5050509183525050600482015460ff161515602082015260059091015460409091015282518390839081106119da576119da612a0e565b602090810291909101015260010161181b565b6119f5612438565b33600090815260076020526040908190209051829190611a16908390612c78565b9081526040519081900360200190205460ff16611a455760405162461bcd60e51b815260040161062c90612c94565b336000908152600760205260408082209051611a62908590612c78565b908152602001604051809103902090506000816002015442611a849190612bfb565b905062278d008110611ad85760405162461bcd60e51b815260206004820152601960248201527f436c61696d20706572696f64206973206f6e65206d6f6e746800000000000000604482015260640161062c565b6000611ae8836001015442612462565b90506000611af962278d0084612d0c565b90506000611b078284612d2e565b9050611b1662278d0083612d2e565b856002016000828254611b299190612ccb565b909155505060025460405163a9059cbb60e01b8152336004820152602481018390526001600160a01b039091169063a9059cbb906044016020604051808303816000875af1158015611b7f573d6000803e3d6000fd5b505050506040513d601f19601f82011682018060405250810190611ba39190612c0e565b611bbf5760405162461bcd60e51b815260040161062c90612c30565b336001600160a01b03167f1a3be26d9ba470ad16bb376aa13666c5c90511b63416723049a5adffeaefa647888342604051611bfc93929190612d45565b60405180910390a2505050505050611c1360018055565b50565b60606000600983604051611c2a9190612c78565b908152602001604051809103902090506000818054905067ffffffffffffffff811115611c5957611c5961258e565b604051908082528060200260200182016040528015611c9257816020015b611c7f61254d565b815260200190600190039081611c775790505b50905060005b8254811015611e87576004838281548110611cb557611cb5612a0e565b906000526020600020015481548110611cd057611cd0612a0e565b90600052602060002090600602016040518060c0016040529081600082015481526020016001820160009054906101000a90046001600160a01b03166001600160a01b03166001600160a01b03168152602001600282018054611d3290612a24565b80601f0160208091040260200160405190810160405280929190818152602001828054611d5e90612a24565b8015611dab5780601f10611d8057610100808354040283529160200191611dab565b820191906000526020600020905b815481529060010190602001808311611d8e57829003601f168201915b50505050508152602001600382018054611dc490612a24565b80601f0160208091040260200160405190810160405280929190818152602001828054611df090612a24565b8015611e3d5780601f10611e1257610100808354040283529160200191611e3d565b820191906000526020600020905b815481529060010190602001808311611e2057829003601f168201915b5050509183525050600482015460ff16151560208201526005909101546040909101528251839083908110611e7457611e74612a0e565b6020908102919091010152600101611c98565b509392505050565b60008151118015611ea25750600a815111155b611efe5760405162461bcd60e51b815260206004820152602760248201527f546167206d757374206265206265747765656e203120616e64203130206368616044820152667261637465727360c81b606482015260840161062c565b611f07816124c9565b611f4b5760405162461bcd60e51b8152602060048201526015602482015274546167206d7573742062652075707065726361736560581b604482015260640161062c565b662386f26fc10000341015611fa25760405162461bcd60e51b815260206004820152601a60248201527f496e73756666696369656e74207374616b6520666f7220746167000000000000604482015260640161062c565b33600090815260076020526040908190209051611fc0908390612c78565b9081526040519081900360200190205460ff16156120205760405162461bcd60e51b815260206004820152601960248201527f5573657220616c72656164792068617320746869732074616700000000000000604482015260640161062c565b6006816040516120309190612c78565b9081526040519081900360200190205460000361207f57604051806020016040528060018152506006826040516120679190612c78565b908152604051908190036020019020905190556120b7565b60016006826040516120919190612c78565b908152602001604051809103902060000160008282546120b19190612ccb565b90915550505b604080516080810182526001815242602080830182905282840191909152600060608301819052338152600790915282902091519091906120f9908490612c78565b90815260408051602092819003830190208351815460ff191690151517815583830151600182015583820151600282015560609093015160039093019290925533600090815260089091529081208054349290612157908490612ccb565b909155505060405133907f48029c04962e4c5c522b8953b9a51378251e92ec6348ce27a0ee1df86976a1d39061219290849034904290612d45565b60405180910390a250565b6121a5612438565b336000908152600760205260409081902090518291906121c6908390612c78565b9081526040519081900360200190205460ff166121f55760405162461bcd60e51b815260040161062c90612c94565b60016006836040516122079190612c78565b908152602001604051809103902060000160008282546122279190612bfb565b90915550503360009081526007602052604090819020905161224a908490612c78565b9081526040805160209281900383019020805460ff19168155600060018201819055600282018190556003909101819055338152600890925281208054662386f26fc100009283929161229e908490612bfb565b9091555050604051600090339083908381818185875af1925050503d80600081146122e5576040519150601f19603f3d011682016040523d82523d6000602084013e6122ea565b606091505b50509050806123315760405162461bcd60e51b815260206004820152601360248201527214dd185ad9481c99599d5b990819985a5b1959606a1b604482015260640161062c565b336001600160a01b03167f53022392e5ef0ad743c22930bb612f8efc273f086f4761968beca548da1a7e53858460405161236c929190612d6a565b60405180910390a2505050611c1360018055565b6123886123bb565b6001600160a01b0381166123b257604051631e4fbdf760e01b81526000600482015260240161062c565b611c13816123e8565b6000546001600160a01b0316331461135d5760405163118cdaa760e01b815233600482015260240161062c565b600080546001600160a01b038381166001600160a01b0319831681178455604051919092169283917f8be0079c531659141344cd1fd0a4f28419497f9722a3daafe3b4186f6b6457e09190a35050565b60026001540361245b57604051633ee5aeb560e01b815260040160405180910390fd5b6002600155565b60008062278d006124738585612bfb565b61247d9190612d0c565b90506000600682101561249a575068056bc75e2d631000006124bf565b600c8210156124b35750680ad78ebc5ac62000006124bf565b50681b1ae4d6e2ef5000005b9150505b92915050565b600081815b815181101561254357604160f81b8282815181106124ee576124ee612a0e565b01602001516001600160f81b031916108061252c5750605a60f81b82828151811061251b5761251b612a0e565b01602001516001600160f81b031916115b1561253b575060009392505050565b6001016124ce565b5060019392505050565b6040518060c001604052806000815260200160006001600160a01b031681526020016060815260200160608152602001600015158152602001600081525090565b634e487b7160e01b600052604160045260246000fd5b600082601f8301126125b557600080fd5b813567ffffffffffffffff808211156125d0576125d061258e565b604051601f8301601f19908116603f011681019082821181831017156125f8576125f861258e565b8160405283815286602085880101111561261157600080fd5b836020870160208301376000602085830101528094505050505092915050565b6000806040838503121561264457600080fd5b82359150602083013567ffffffffffffffff81111561266257600080fd5b61266e858286016125a4565b9150509250929050565b60005b8381101561269357818101518382015260200161267b565b50506000910152565b600081518084526126b4816020860160208601612678565b601f01601f19169290920160200192915050565b600060208083018184528085518083526040925060408601915060408160051b87010184880160005b8381101561277957888303603f19018552815180518452878101516001600160a01b0316888501528681015160c0888601819052906127328287018261269c565b9150506060808301518683038288015261274c838261269c565b60808581015115159089015260a094850151949097019390935250505093860193908601906001016126f1565b509098975050505050505050565b6000806040838503121561279a57600080fd5b823567ffffffffffffffff8111156127b157600080fd5b6127bd858286016125a4565b95602094909401359450505050565b80356001600160a01b03811681146127e357600080fd5b919050565b6000602082840312156127fa57600080fd5b612803826127cc565b9392505050565b60006020828403121561281c57600080fd5b5035919050565b600060208083018184528085518083526040925060408601915060408160051b87010184880160005b8381101561277957888303603f19018552815180516001600160a01b031684528701518784018790526128818785018261269c565b958801959350509086019060010161284c565b600080604083850312156128a757600080fd5b50508035926020909101359150565b6001600160a01b03831681526040602082018190526000906128da9083018461269c565b949350505050565b8681526001600160a01b038616602082015260c06040820181905260009061290c9083018761269c565b828103606084015261291e818761269c565b9415156080840152505060a00152949350505050565b60006020828403121561294657600080fd5b813567ffffffffffffffff81111561295d57600080fd5b6128da848285016125a4565b6000806040838503121561297c57600080fd5b612985836127cc565b9150602083013567ffffffffffffffff81111561266257600080fd5b600080604083850312156129b457600080fd5b823567ffffffffffffffff808211156129cc57600080fd5b6129d8868387016125a4565b935060208501359150808211156129ee57600080fd5b5061266e858286016125a4565b602081526000612803602083018461269c565b634e487b7160e01b600052603260045260246000fd5b600181811c90821680612a3857607f821691505b602082108103612a5857634e487b7160e01b600052602260045260246000fd5b50919050565b6000808354612a6c81612a24565b60018281168015612a845760018114612a9957612ac8565b60ff1984168752821515830287019450612ac8565b8760005260208060002060005b85811015612abf5781548a820152908401908201612aa6565b50505082870194505b50929695505050505050565b601f821115612b20576000816000526020600020601f850160051c81016020861015612afd5750805b601f850160051c820191505b81811015612b1c57828155600101612b09565b5050505b505050565b815167ffffffffffffffff811115612b3f57612b3f61258e565b612b5381612b4d8454612a24565b84612ad4565b602080601f831160018114612b885760008415612b705750858301515b600019600386901b1c1916600185901b178555612b1c565b600085815260208120601f198616915b82811015612bb757888601518255948401946001909101908401612b98565b5085821015612bd55787850151600019600388901b60f8161c191681555b5050505050600190811b01905550565b634e487b7160e01b600052601160045260246000fd5b818103818111156124c3576124c3612be5565b600060208284031215612c2057600080fd5b8151801515811461280357600080fd5b602080825260159082015274151bdad95b881d1c985b9cd9995c8819985a5b1959605a1b604082015260600190565b8281526040602082015260006128da604083018461269c565b60008251612c8a818460208701612678565b9190910192915050565b6020808252601b908201527f5573657220646f6573206e6f7420686176652074686973207461670000000000604082015260600190565b808201808211156124c3576124c3612be5565b604081526000612cf1604083018561269c565b8281036020840152612d03818561269c565b95945050505050565b600082612d2957634e487b7160e01b600052601260045260246000fd5b500490565b80820281158282048414176124c3576124c3612be5565b606081526000612d58606083018661269c565b60208301949094525060400152919050565b604081526000612d7d604083018561269c565b9050826020830152939250505056fea2646970667358221220e8a57ed89cb604a6427565ad9d57493cd69466e795e9dc54887543feb7bd65ff64736f6c63430008180033",
  "linkReferences": {},
  "deployedLinkReferences": {}
}