{
  "_format": "hh-sol-artifact-1",
  "contractName": "AskAround",
  "sourceName": "contracts/AskAround.sol",
  "abi": [
    {
      "inputs": [
        {
          "internalType": "contract IERC20",
          "name": "_token",
          "type": "address"
        }
      ],
      "stateMutability": "nonpayable",
      "type": "constructor"
    },
    {
      "inputs": [
        {
          "internalType": "address",
          "name": "owner",
          "type": "address"
        }
      ],
      "name": "OwnableInvalidOwner",
      "type": "error"
    },
    {
      "inputs": [
        {
          "internalType": "address",
          "name": "account",
          "type": "address"
        }
      ],
      "name": "OwnableUnauthorizedAccount",
      "type": "error"
    },
    {
      "inputs": [],
      "name": "ReentrancyGuardReentrantCall",
      "type": "error"
    },
    {
      "anonymous": false,
      "inputs": [
        {
          "indexed": true,
          "internalType": "address",
          "name": "answerer",
          "type": "address"
        },
        {
          "indexed": true,
          "internalType": "uint256",
          "name": "questionId",
          "type": "uint256"
        },
        {
          "indexed": false,
          "internalType": "uint256",
          "name": "answerId",
          "type": "uint256"
        },
        {
          "indexed": false,
          "internalType": "string",
          "name": "content",
          "type": "string"
        }
      ],
      "name": "AnswerSubmitted",
      "type": "event"
    },
    {
      "anonymous": false,
      "inputs": [
        {
          "indexed": true,
          "internalType": "address",
          "name": "asker",
          "type": "address"
        },
        {
          "indexed": true,
          "internalType": "uint256",
          "name": "questionId",
          "type": "uint256"
        },
        {
          "indexed": false,
          "internalType": "uint256",
          "name": "answerId",
          "type": "uint256"
        }
      ],
      "name": "BestAnswerSelected",
      "type": "event"
    },
    {
      "anonymous": false,
      "inputs": [
        {
          "indexed": true,
          "internalType": "address",
          "name": "previousOwner",
          "type": "address"
        },
        {
          "indexed": true,
          "internalType": "address",
          "name": "newOwner",
          "type": "address"
        }
      ],
      "name": "OwnershipTransferred",
      "type": "event"
    },
    {
      "anonymous": false,
      "inputs": [
        {
          "indexed": true,
          "internalType": "address",
          "name": "asker",
          "type": "address"
        },
        {
          "indexed": true,
          "internalType": "uint256",
          "name": "questionId",
          "type": "uint256"
        },
        {
          "indexed": false,
          "internalType": "string",
          "name": "content",
          "type": "string"
        },
        {
          "indexed": false,
          "internalType": "string",
          "name": "tag",
          "type": "string"
        }
      ],
      "name": "QuestionAsked",
      "type": "event"
    },
    {
      "anonymous": false,
      "inputs": [
        {
          "indexed": true,
          "internalType": "address",
          "name": "user",
          "type": "address"
        },
        {
          "indexed": false,
          "internalType": "string",
          "name": "tag",
          "type": "string"
        },
        {
          "indexed": false,
          "internalType": "uint256",
          "name": "rewardAmount",
          "type": "uint256"
        },
        {
          "indexed": false,
          "internalType": "uint256",
          "name": "timestamp",
          "type": "uint256"
        }
      ],
      "name": "RewardClaimed",
      "type": "event"
    },
    {
      "anonymous": false,
      "inputs": [
        {
          "indexed": true,
          "internalType": "address",
          "name": "user",
          "type": "address"
        },
        {
          "indexed": false,
          "internalType": "string",
          "name": "tag",
          "type": "string"
        },
        {
          "indexed": false,
          "internalType": "uint256",
          "name": "stake",
          "type": "uint256"
        },
        {
          "indexed": false,
          "internalType": "uint256",
          "name": "timestamp",
          "type": "uint256"
        }
      ],
      "name": "TagAdded",
      "type": "event"
    },
    {
      "anonymous": false,
      "inputs": [
        {
          "indexed": true,
          "internalType": "address",
          "name": "user",
          "type": "address"
        },
        {
          "indexed": false,
          "internalType": "string",
          "name": "tag",
          "type": "string"
        },
        {
          "indexed": false,
          "internalType": "uint256",
          "name": "stake",
          "type": "uint256"
        }
      ],
      "name": "TagRemoved",
      "type": "event"
    },
    {
      "inputs": [],
      "name": "BEST_ANSWER_REWARD",
      "outputs": [
        {
          "internalType": "uint256",
          "name": "",
          "type": "uint256"
        }
      ],
      "stateMutability": "view",
      "type": "function"
    },
    {
      "inputs": [],
      "name": "MAX_TAG_LENGTH",
      "outputs": [
        {
          "internalType": "uint256",
          "name": "",
          "type": "uint256"
        }
      ],
      "stateMutability": "view",
      "type": "function"
    },
    {
      "inputs": [],
      "name": "ONE_MONTH",
      "outputs": [
        {
          "internalType": "uint256",
          "name": "",
          "type": "uint256"
        }
      ],
      "stateMutability": "view",
      "type": "function"
    },
    {
      "inputs": [],
      "name": "REWARD_FOR_ANSWER",
      "outputs": [
        {
          "internalType": "uint256",
          "name": "",
          "type": "uint256"
        }
      ],
      "stateMutability": "view",
      "type": "function"
    },
    {
      "inputs": [],
      "name": "REWARD_FOR_QUESTION",
      "outputs": [
        {
          "internalType": "uint256",
          "name": "",
          "type": "uint256"
        }
      ],
      "stateMutability": "view",
      "type": "function"
    },
    {
      "inputs": [],
      "name": "TAG_STAKE_AMOUNT",
      "outputs": [
        {
          "internalType": "uint256",
          "name": "",
          "type": "uint256"
        }
      ],
      "stateMutability": "view",
      "type": "function"
    },
    {
      "inputs": [
        {
          "internalType": "string",
          "name": "_tag",
          "type": "string"
        }
      ],
      "name": "addTag",
      "outputs": [],
      "stateMutability": "payable",
      "type": "function"
    },
    {
      "inputs": [
        {
          "internalType": "uint256",
          "name": "",
          "type": "uint256"
        },
        {
          "internalType": "uint256",
          "name": "",
          "type": "uint256"
        }
      ],
      "name": "answers",
      "outputs": [
        {
          "internalType": "address",
          "name": "answerer",
          "type": "address"
        },
        {
          "internalType": "string",
          "name": "content",
          "type": "string"
        }
      ],
      "stateMutability": "view",
      "type": "function"
    },
    {
      "inputs": [
        {
          "internalType": "string",
          "name": "_content",
          "type": "string"
        },
        {
          "internalType": "string",
          "name": "_tag",
          "type": "string"
        }
      ],
      "name": "askQuestion",
      "outputs": [],
      "stateMutability": "nonpayable",
      "type": "function"
    },
    {
      "inputs": [
        {
          "internalType": "string",
          "name": "_tag",
          "type": "string"
        }
      ],
      "name": "claimReward",
      "outputs": [],
      "stateMutability": "nonpayable",
      "type": "function"
    },
    {
      "inputs": [],
      "name": "getFirstHundredQuestions",
      "outputs": [
        {
          "components": [
            {
              "internalType": "address",
              "name": "asker",
              "type": "address"
            },
            {
              "internalType": "string",
              "name": "content",
              "type": "string"
            },
            {
              "internalType": "string",
              "name": "tag",
              "type": "string"
            },
            {
              "internalType": "bool",
              "name": "answered",
              "type": "bool"
            },
            {
              "internalType": "uint256",
              "name": "bestAnswerId",
              "type": "uint256"
            }
          ],
          "internalType": "struct AskAround.Question[]",
          "name": "",
          "type": "tuple[]"
        }
      ],
      "stateMutability": "view",
      "type": "function"
    },
    {
      "inputs": [],
      "name": "getFirstTenQuestions",
      "outputs": [
        {
          "components": [
            {
              "internalType": "address",
              "name": "asker",
              "type": "address"
            },
            {
              "internalType": "string",
              "name": "content",
              "type": "string"
            },
            {
              "internalType": "string",
              "name": "tag",
              "type": "string"
            },
            {
              "internalType": "bool",
              "name": "answered",
              "type": "bool"
            },
            {
              "internalType": "uint256",
              "name": "bestAnswerId",
              "type": "uint256"
            }
          ],
          "internalType": "struct AskAround.Question[]",
          "name": "",
          "type": "tuple[]"
        }
      ],
      "stateMutability": "view",
      "type": "function"
    },
    {
      "inputs": [
        {
          "internalType": "string",
          "name": "_tag",
          "type": "string"
        }
      ],
      "name": "getQuestionsByTag",
      "outputs": [
        {
          "components": [
            {
              "internalType": "address",
              "name": "asker",
              "type": "address"
            },
            {
              "internalType": "string",
              "name": "content",
              "type": "string"
            },
            {
              "internalType": "string",
              "name": "tag",
              "type": "string"
            },
            {
              "internalType": "bool",
              "name": "answered",
              "type": "bool"
            },
            {
              "internalType": "uint256",
              "name": "bestAnswerId",
              "type": "uint256"
            }
          ],
          "internalType": "struct AskAround.Question[]",
          "name": "",
          "type": "tuple[]"
        }
      ],
      "stateMutability": "view",
      "type": "function"
    },
    {
      "inputs": [],
      "name": "owner",
      "outputs": [
        {
          "internalType": "address",
          "name": "",
          "type": "address"
        }
      ],
      "stateMutability": "view",
      "type": "function"
    },
    {
      "inputs": [
        {
          "internalType": "uint256",
          "name": "",
          "type": "uint256"
        }
      ],
      "name": "questions",
      "outputs": [
        {
          "internalType": "address",
          "name": "asker",
          "type": "address"
        },
        {
          "internalType": "string",
          "name": "content",
          "type": "string"
        },
        {
          "internalType": "string",
          "name": "tag",
          "type": "string"
        },
        {
          "internalType": "bool",
          "name": "answered",
          "type": "bool"
        },
        {
          "internalType": "uint256",
          "name": "bestAnswerId",
          "type": "uint256"
        }
      ],
      "stateMutability": "view",
      "type": "function"
    },
    {
      "inputs": [
        {
          "internalType": "string",
          "name": "_name",
          "type": "string"
        }
      ],
      "name": "registerUser",
      "outputs": [],
      "stateMutability": "nonpayable",
      "type": "function"
    },
    {
      "inputs": [
        {
          "internalType": "string",
          "name": "_tag",
          "type": "string"
        }
      ],
      "name": "removeTag",
      "outputs": [],
      "stateMutability": "nonpayable",
      "type": "function"
    },
    {
      "inputs": [],
      "name": "renounceOwnership",
      "outputs": [],
      "stateMutability": "nonpayable",
      "type": "function"
    },
    {
      "inputs": [
        {
          "internalType": "uint256",
          "name": "_questionId",
          "type": "uint256"
        },
        {
          "internalType": "uint256",
          "name": "_answerId",
          "type": "uint256"
        }
      ],
      "name": "selectBestAnswer",
      "outputs": [],
      "stateMutability": "nonpayable",
      "type": "function"
    },
    {
      "inputs": [
        {
          "internalType": "address",
          "name": "",
          "type": "address"
        }
      ],
      "name": "stakes",
      "outputs": [
        {
          "internalType": "uint256",
          "name": "",
          "type": "uint256"
        }
      ],
      "stateMutability": "view",
      "type": "function"
    },
    {
      "inputs": [
        {
          "internalType": "uint256",
          "name": "_questionId",
          "type": "uint256"
        },
        {
          "internalType": "string",
          "name": "_content",
          "type": "string"
        }
      ],
      "name": "submitAnswer",
      "outputs": [],
      "stateMutability": "nonpayable",
      "type": "function"
    },
    {
      "inputs": [
        {
          "internalType": "string",
          "name": "",
          "type": "string"
        },
        {
          "internalType": "uint256",
          "name": "",
          "type": "uint256"
        }
      ],
      "name": "tagToQuestions",
      "outputs": [
        {
          "internalType": "uint256",
          "name": "",
          "type": "uint256"
        }
      ],
      "stateMutability": "view",
      "type": "function"
    },
    {
      "inputs": [
        {
          "internalType": "string",
          "name": "",
          "type": "string"
        }
      ],
      "name": "tags",
      "outputs": [
        {
          "internalType": "uint256",
          "name": "userCount",
          "type": "uint256"
        }
      ],
      "stateMutability": "view",
      "type": "function"
    },
    {
      "inputs": [],
      "name": "token",
      "outputs": [
        {
          "internalType": "contract IERC20",
          "name": "",
          "type": "address"
        }
      ],
      "stateMutability": "view",
      "type": "function"
    },
    {
      "inputs": [
        {
          "internalType": "address",
          "name": "newOwner",
          "type": "address"
        }
      ],
      "name": "transferOwnership",
      "outputs": [],
      "stateMutability": "nonpayable",
      "type": "function"
    },
    {
      "inputs": [
        {
          "internalType": "address",
          "name": "",
          "type": "address"
        },
        {
          "internalType": "string",
          "name": "",
          "type": "string"
        }
      ],
      "name": "userTags",
      "outputs": [
        {
          "internalType": "bool",
          "name": "exists",
          "type": "bool"
        },
        {
          "internalType": "uint256",
          "name": "timestamp",
          "type": "uint256"
        },
        {
          "internalType": "uint256",
          "name": "lastClaimed",
          "type": "uint256"
        },
        {
          "internalType": "uint256",
          "name": "bestAnswerCount",
          "type": "uint256"
        }
      ],
      "stateMutability": "view",
      "type": "function"
    },
    {
      "inputs": [
        {
          "internalType": "address",
          "name": "",
          "type": "address"
        }
      ],
      "name": "users",
      "outputs": [
        {
          "internalType": "string",
          "name": "name",
          "type": "string"
        }
      ],
      "stateMutability": "view",
      "type": "function"
    }
  ],
  "bytecode": "0x60806040523480156200001157600080fd5b5060405162002cff38038062002cff8339810160408190526200003491620000e1565b33806200005b57604051631e4fbdf760e01b81526000600482015260240160405180910390fd5b620000668162000091565b5060018055600280546001600160a01b0319166001600160a01b039290921691909117905562000113565b600080546001600160a01b038381166001600160a01b0319831681178455604051919092169283917f8be0079c531659141344cd1fd0a4f28419497f9722a3daafe3b4186f6b6457e09190a35050565b600060208284031215620000f457600080fd5b81516001600160a01b03811681146200010c57600080fd5b9392505050565b612bdc80620001236000396000f3fe60806040526004361061019c5760003560e01c80637ade44b9116100ec578063cd7ce8561161008a578063df09e37111610064578063df09e37114610527578063f2fde38b14610547578063f50496f414610567578063fc0c546a1461057c57600080fd5b8063cd7ce856146104d8578063d139aa74146104f8578063de0cc45b1461051457600080fd5b806390a3f588116100c657806390a3f58814610456578063a87430ba14610476578063b4ee3b96146104a3578063bb8c9797146104b857600080fd5b80637ade44b9146103ed5780638da5cb5b14610408578063902f31f01461043a57600080fd5b806331b1b978116101595780635c0926d5116101335780635c0926d514610314578063704f1b9414610398578063705b8845146103b8578063715018a6146103d857600080fd5b806331b1b9781461028e57806338fc5104146102bf5780635368f853146102dc57600080fd5b806301fa3bec146101a157806303023dc4146101c3578063157ec22e146101ee57806316934fc41461021c57806320988cef146102495780632401519c14610260575b600080fd5b3480156101ad57600080fd5b506101c16101bc3660046124ce565b61059c565b005b3480156101cf57600080fd5b506101d861085a565b6040516101e59190612565565b60405180910390f35b3480156101fa57600080fd5b5061020e610209366004612619565b610a89565b6040519081526020016101e5565b34801561022857600080fd5b5061020e61023736600461267a565b60086020526000908152604090205481565b34801561025557600080fd5b5061020e62278d0081565b34801561026c57600080fd5b5061028061027b36600461269c565b610ac9565b6040516101e59291906126be565b34801561029a57600080fd5b506102ae6102a93660046126ea565b610b99565b6040516101e5959493929190612703565b3480156102cb57600080fd5b5061020e6802b5e3af16b188000081565b3480156102e857600080fd5b5061020e6102f736600461274e565b805160208183018101805160068252928201919093012091525481565b34801561032057600080fd5b5061037661032f366004612783565b60076020908152600092835260409092208151808301840180519281529084019290930191909120915280546001820154600283015460039093015460ff90921692909184565b60408051941515855260208501939093529183015260608201526080016101e5565b3480156103a457600080fd5b506101c16103b336600461274e565b610cf9565b3480156103c457600080fd5b506101c16103d33660046127bb565b610eff565b3480156103e457600080fd5b506101c1611238565b3480156103f957600080fd5b5061020e662386f26fc1000081565b34801561041457600080fd5b506000546001600160a01b03165b6040516001600160a01b0390911681526020016101e5565b34801561044657600080fd5b5061020e678ac7230489e8000081565b34801561046257600080fd5b506101c161047136600461269c565b61124c565b34801561048257600080fd5b5061049661049136600461267a565b6115ed565b6040516101e59190612815565b3480156104af57600080fd5b506101d861168b565b3480156104c457600080fd5b506101c16104d336600461274e565b6118b3565b3480156104e457600080fd5b506101d86104f336600461274e565b611adc565b34801561050457600080fd5b5061020e674563918244f4000081565b6101c161052236600461274e565b611d33565b34801561053357600080fd5b506101c161054236600461274e565b612041565b34801561055357600080fd5b506101c161056236600461267a565b612224565b34801561057357600080fd5b5061020e600a81565b34801561058857600080fd5b50600254610422906001600160a01b031681565b60045482106105ec5760405162461bcd60e51b8152602060048201526017602482015276145d595cdd1a5bdb88191bd95cc81b9bdd08195e1a5cdd604a1b60448201526064015b60405180910390fd5b60006004838154811061060157610601612828565b90600052602060002090600502019050600082511161065c5760405162461bcd60e51b8152602060048201526017602482015276436f6e74656e742063616e6e6f7420626520656d70747960481b60448201526064016105e3565b3360009081526007602052604090819020905161067d906002840190612878565b9081526040519081900360200190205460ff166106f15760405162461bcd60e51b815260206004820152602c60248201527f5573657220646f6573206e6f742068617665207468652074616720666f72207460448201526b3434b99038bab2b9ba34b7b760a11b60648201526084016105e3565b6000838152600560209081526040808320815180830190925233825281830186815281546001808201845592865293909420825160029094020180546001600160a01b0319166001600160a01b0390941693909317835592519092820190610759908261293f565b50505060008381526005602052604081205461077790600190612a15565b60025460405163a9059cbb60e01b8152336004820152674563918244f4000060248201529192506001600160a01b03169063a9059cbb906044016020604051808303816000875af11580156107d0573d6000803e3d6000fd5b505050506040513d601f19601f820116820180604052508101906107f49190612a28565b6108105760405162461bcd60e51b81526004016105e390612a4a565b83336001600160a01b03167fa9553d9d070efe5c4264c023881fed167c0008634664b52054f8839f05a2944a838660405161084c929190612a79565b60405180910390a350505050565b60606000606460048054905010610872576064610876565b6004545b905060008167ffffffffffffffff8111156108935761089361242b565b6040519080825280602002602001820160405280156108cc57816020015b6108b96123f1565b8152602001906001900390816108b15790505b50905060005b82811015610a8257600481815481106108ed576108ed612828565b60009182526020918290206040805160a0810190915260059092020180546001600160a01b03168252600181018054929391929184019161092d9061283e565b80601f01602080910402602001604051908101604052809291908181526020018280546109599061283e565b80156109a65780601f1061097b576101008083540402835291602001916109a6565b820191906000526020600020905b81548152906001019060200180831161098957829003601f168201915b505050505081526020016002820180546109bf9061283e565b80601f01602080910402602001604051908101604052809291908181526020018280546109eb9061283e565b8015610a385780601f10610a0d57610100808354040283529160200191610a38565b820191906000526020600020905b815481529060010190602001808311610a1b57829003601f168201915b5050509183525050600382015460ff16151560208201526004909101546040909101528251839083908110610a6f57610a6f612828565b60209081029190910101526001016108d2565b5092915050565b81516020818401810180516009825292820191850191909120919052805482908110610ab457600080fd5b90600052602060002001600091509150505481565b60056020528160005260406000208181548110610ae557600080fd5b6000918252602090912060029091020180546001820180546001600160a01b039092169450919250610b169061283e565b80601f0160208091040260200160405190810160405280929190818152602001828054610b429061283e565b8015610b8f5780601f10610b6457610100808354040283529160200191610b8f565b820191906000526020600020905b815481529060010190602001808311610b7257829003601f168201915b5050505050905082565b60048181548110610ba957600080fd5b6000918252602090912060059091020180546001820180546001600160a01b03909216935090610bd89061283e565b80601f0160208091040260200160405190810160405280929190818152602001828054610c049061283e565b8015610c515780601f10610c2657610100808354040283529160200191610c51565b820191906000526020600020905b815481529060010190602001808311610c3457829003601f168201915b505050505090806002018054610c669061283e565b80601f0160208091040260200160405190810160405280929190818152602001828054610c929061283e565b8015610cdf5780601f10610cb457610100808354040283529160200191610cdf565b820191906000526020600020905b815481529060010190602001808311610cc257829003601f168201915b505050506003830154600490930154919260ff1691905085565b8051819080610d415760405162461bcd60e51b81526020600482015260146024820152734e616d652063616e6e6f7420626520656d70747960601b60448201526064016105e3565b6064811115610d855760405162461bcd60e51b815260206004820152601060248201526f4e616d6520697320746f6f206c6f6e6760801b60448201526064016105e3565b60005b81811015610e76576000838281518110610da457610da4612828565b01602001516001600160f81b0319169050604160f81b8110801590610dd75750602d60f91b6001600160f81b0319821611155b80610e095750606160f81b6001600160f81b0319821610801590610e095750603d60f91b6001600160f81b0319821611155b80610e215750600160fd1b6001600160f81b03198216145b610e6d5760405162461bcd60e51b815260206004820181905260248201527f4e616d6520636f6e7461696e7320696e76616c6964206368617261637465727360448201526064016105e3565b50600101610d88565b503360009081526003602052604090208054610e919061283e565b159050610ee05760405162461bcd60e51b815260206004820152601760248201527f5573657220616c7265616479207265676973746572656400000000000000000060448201526064016105e3565b336000908152600360205260409020610ef9848261293f565b50505050565b806000600682604051610f129190612a92565b9081526040519081900360200190205411610f645760405162461bcd60e51b8152602060048201526012602482015271151859c8191bd95cc81b9bdd08195e1a5cdd60721b60448201526064016105e3565b33600090815260076020526040908190209051839190610f85908390612a92565b9081526040519081900360200190205460ff16610fb45760405162461bcd60e51b81526004016105e390612aae565b6000845111610fff5760405162461bcd60e51b8152602060048201526017602482015276436f6e74656e742063616e6e6f7420626520656d70747960481b60448201526064016105e3565b6040805160a081018252338152602081018681529181018590526000606082018190526080820181905260048054600181018255915281517f8a35acfbc15ff81a39ae7d344fd709f28e8600b4aa8c65c6b64bfe7fe36bd19b600590920291820180546001600160a01b0319166001600160a01b0390921691909117815592519192917f8a35acfbc15ff81a39ae7d344fd709f28e8600b4aa8c65c6b64bfe7fe36bd19c909101906110b1908261293f565b50604082015160028201906110c6908261293f565b50606082015160038201805460ff1916911515919091179055608090910151600491820155546000906110fb90600190612a15565b3360009081526003602090815260408083206001908101805491820181558452919092200182905551909150600990611135908690612a92565b9081526040519081900360209081018220805460018101825560009182529190200182905560025463a9059cbb60e01b8252336004830152678ac7230489e8000060248301526001600160a01b03169063a9059cbb906044016020604051808303816000875af11580156111ad573d6000803e3d6000fd5b505050506040513d601f19601f820116820180604052508101906111d19190612a28565b6111ed5760405162461bcd60e51b81526004016105e390612a4a565b80336001600160a01b03167f5e7d9da88cb74da283f91a4e189a801bde81025a3ea326e9bd552cfa275aef1f8787604051611229929190612ae5565b60405180910390a35050505050565b61124061225f565b61124a600061228c565b565b60045482106112975760405162461bcd60e51b8152602060048201526017602482015276145d595cdd1a5bdb88191bd95cc81b9bdd08195e1a5cdd604a1b60448201526064016105e3565b6000600483815481106112ac576112ac612828565b6000918252602090912060059091020180549091506001600160a01b0316331461132a5760405162461bcd60e51b815260206004820152602960248201527f4f6e6c79207468652061736b65722063616e2073656c6563742074686520626560448201526839ba1030b739bbb2b960b91b60648201526084016105e3565b600083815260056020526040902054821061137f5760405162461bcd60e51b8152602060048201526015602482015274105b9cddd95c88191bd95cc81b9bdd08195e1a5cdd605a1b60448201526064016105e3565b60008381526005602052604090208054339190849081106113a2576113a2612828565b60009182526020909120600290910201546001600160a01b0316036114225760405162461bcd60e51b815260206004820152603060248201527f43616e6e6f742073656c65637420796f7572206f776e20616e7377657220617360448201526f103a3432903132b9ba1030b739bbb2b960811b60648201526084016105e3565b6004810182905560038101805460ff19166001179055600083815260056020526040812080548490811061145857611458612828565b6000918252602090912060029182020154905460405163a9059cbb60e01b81526001600160a01b03928316600482018190526802b5e3af16b18800006024830152935091169063a9059cbb906044016020604051808303816000875af11580156114c6573d6000803e3d6000fd5b505050506040513d601f19601f820116820180604052508101906114ea9190612a28565b6115455760405162461bcd60e51b815260206004820152602660248201527f546f6b656e207472616e7366657220746f206265737420616e7377657265722060448201526519985a5b195960d21b60648201526084016105e3565b6001600160a01b0381166000908152600760205260408120600480548790811061157157611571612828565b906000526020600020906005020160020160405161158f9190612878565b9081526020016040518091039020905060018160030160008282546115b49190612b13565b9091555050604051848152859033907f6c9459c9d0359f61982fb7b8e0bf72faa35ff72fbc2215158571421546845d5090602001611229565b6003602052600090815260409020805481906116089061283e565b80601f01602080910402602001604051908101604052809291908181526020018280546116349061283e565b80156116815780601f1061165657610100808354040283529160200191611681565b820191906000526020600020905b81548152906001019060200180831161166457829003601f168201915b5050505050905081565b60606000600a600480549050106116a357600a6116a7565b6004545b905060008167ffffffffffffffff8111156116c4576116c461242b565b6040519080825280602002602001820160405280156116fd57816020015b6116ea6123f1565b8152602001906001900390816116e25790505b50905060005b82811015610a82576004818154811061171e5761171e612828565b60009182526020918290206040805160a0810190915260059092020180546001600160a01b03168252600181018054929391929184019161175e9061283e565b80601f016020809104026020016040519081016040528092919081815260200182805461178a9061283e565b80156117d75780601f106117ac576101008083540402835291602001916117d7565b820191906000526020600020905b8154815290600101906020018083116117ba57829003601f168201915b505050505081526020016002820180546117f09061283e565b80601f016020809104026020016040519081016040528092919081815260200182805461181c9061283e565b80156118695780601f1061183e57610100808354040283529160200191611869565b820191906000526020600020905b81548152906001019060200180831161184c57829003601f168201915b5050509183525050600382015460ff161515602082015260049091015460409091015282518390839081106118a0576118a0612828565b6020908102919091010152600101611703565b6118bb6122dc565b336000908152600760205260409081902090518291906118dc908390612a92565b9081526040519081900360200190205460ff1661190b5760405162461bcd60e51b81526004016105e390612aae565b336000908152600760205260408082209051611928908590612a92565b90815260200160405180910390209050600081600201544261194a9190612a15565b905062278d00811061199e5760405162461bcd60e51b815260206004820152601960248201527f436c61696d20706572696f64206973206f6e65206d6f6e74680000000000000060448201526064016105e3565b60006119ae836001015442612306565b905060006119bf62278d0084612b26565b905060006119cd8284612b48565b90506119dc62278d0083612b48565b8560020160008282546119ef9190612b13565b909155505060025460405163a9059cbb60e01b8152336004820152602481018390526001600160a01b039091169063a9059cbb906044016020604051808303816000875af1158015611a45573d6000803e3d6000fd5b505050506040513d601f19601f82011682018060405250810190611a699190612a28565b611a855760405162461bcd60e51b81526004016105e390612a4a565b336001600160a01b03167f1a3be26d9ba470ad16bb376aa13666c5c90511b63416723049a5adffeaefa647888342604051611ac293929190612b5f565b60405180910390a2505050505050611ad960018055565b50565b60606000600983604051611af09190612a92565b908152602001604051809103902090506000818054905067ffffffffffffffff811115611b1f57611b1f61242b565b604051908082528060200260200182016040528015611b5857816020015b611b456123f1565b815260200190600190039081611b3d5790505b50905060005b8254811015611d2b576004838281548110611b7b57611b7b612828565b906000526020600020015481548110611b9657611b96612828565b60009182526020918290206040805160a0810190915260059092020180546001600160a01b031682526001810180549293919291840191611bd69061283e565b80601f0160208091040260200160405190810160405280929190818152602001828054611c029061283e565b8015611c4f5780601f10611c2457610100808354040283529160200191611c4f565b820191906000526020600020905b815481529060010190602001808311611c3257829003601f168201915b50505050508152602001600282018054611c689061283e565b80601f0160208091040260200160405190810160405280929190818152602001828054611c949061283e565b8015611ce15780601f10611cb657610100808354040283529160200191611ce1565b820191906000526020600020905b815481529060010190602001808311611cc457829003601f168201915b5050509183525050600382015460ff16151560208201526004909101546040909101528251839083908110611d1857611d18612828565b6020908102919091010152600101611b5e565b509392505050565b60008151118015611d465750600a815111155b611da25760405162461bcd60e51b815260206004820152602760248201527f546167206d757374206265206265747765656e203120616e64203130206368616044820152667261637465727360c81b60648201526084016105e3565b611dab8161236d565b611def5760405162461bcd60e51b8152602060048201526015602482015274546167206d7573742062652075707065726361736560581b60448201526064016105e3565b662386f26fc10000341015611e465760405162461bcd60e51b815260206004820152601a60248201527f496e73756666696369656e74207374616b6520666f722074616700000000000060448201526064016105e3565b33600090815260076020526040908190209051611e64908390612a92565b9081526040519081900360200190205460ff1615611ec45760405162461bcd60e51b815260206004820152601960248201527f5573657220616c7265616479206861732074686973207461670000000000000060448201526064016105e3565b600681604051611ed49190612a92565b90815260405190819003602001902054600003611f235760405180602001604052806001815250600682604051611f0b9190612a92565b90815260405190819003602001902090519055611f5b565b6001600682604051611f359190612a92565b90815260200160405180910390206000016000828254611f559190612b13565b90915550505b60408051608081018252600181524260208083018290528284019190915260006060830181905233815260079091528290209151909190611f9d908490612a92565b90815260408051602092819003830190208351815460ff191690151517815583830151600182015583820151600282015560609093015160039093019290925533600090815260089091529081208054349290611ffb908490612b13565b909155505060405133907f48029c04962e4c5c522b8953b9a51378251e92ec6348ce27a0ee1df86976a1d39061203690849034904290612b5f565b60405180910390a250565b6120496122dc565b3360009081526007602052604090819020905182919061206a908390612a92565b9081526040519081900360200190205460ff166120995760405162461bcd60e51b81526004016105e390612aae565b60016006836040516120ab9190612a92565b908152602001604051809103902060000160008282546120cb9190612a15565b9091555050336000908152600760205260409081902090516120ee908490612a92565b9081526040805160209281900383019020805460ff19168155600060018201819055600282018190556003909101819055338152600890925281208054662386f26fc1000092839291612142908490612a15565b9091555050604051600090339083908381818185875af1925050503d8060008114612189576040519150601f19603f3d011682016040523d82523d6000602084013e61218e565b606091505b50509050806121d55760405162461bcd60e51b815260206004820152601360248201527214dd185ad9481c99599d5b990819985a5b1959606a1b60448201526064016105e3565b336001600160a01b03167f53022392e5ef0ad743c22930bb612f8efc273f086f4761968beca548da1a7e538584604051612210929190612b84565b60405180910390a2505050611ad960018055565b61222c61225f565b6001600160a01b03811661225657604051631e4fbdf760e01b8152600060048201526024016105e3565b611ad98161228c565b6000546001600160a01b0316331461124a5760405163118cdaa760e01b81523360048201526024016105e3565b600080546001600160a01b038381166001600160a01b0319831681178455604051919092169283917f8be0079c531659141344cd1fd0a4f28419497f9722a3daafe3b4186f6b6457e09190a35050565b6002600154036122ff57604051633ee5aeb560e01b815260040160405180910390fd5b6002600155565b60008062278d006123178585612a15565b6123219190612b26565b90506000600682101561233e575068056bc75e2d63100000612363565b600c8210156123575750680ad78ebc5ac6200000612363565b50681b1ae4d6e2ef5000005b9150505b92915050565b600081815b81518110156123e757604160f81b82828151811061239257612392612828565b01602001516001600160f81b03191610806123d05750605a60f81b8282815181106123bf576123bf612828565b01602001516001600160f81b031916115b156123df575060009392505050565b600101612372565b5060019392505050565b6040518060a0016040528060006001600160a01b031681526020016060815260200160608152602001600015158152602001600081525090565b634e487b7160e01b600052604160045260246000fd5b600082601f83011261245257600080fd5b813567ffffffffffffffff8082111561246d5761246d61242b565b604051601f8301601f19908116603f011681019082821181831017156124955761249561242b565b816040528381528660208588010111156124ae57600080fd5b836020870160208301376000602085830101528094505050505092915050565b600080604083850312156124e157600080fd5b82359150602083013567ffffffffffffffff8111156124ff57600080fd5b61250b85828601612441565b9150509250929050565b60005b83811015612530578181015183820152602001612518565b50506000910152565b60008151808452612551816020860160208601612515565b601f01601f19169290920160200192915050565b600060208083018184528085518083526040925060408601915060408160051b87010184880160005b8381101561260b57888303603f19018552815180516001600160a01b031684528781015160a0898601819052906125c782870182612539565b91505087820151858203898701526125df8282612539565b60608481015115159088015260809384015193909601929092525050938601939086019060010161258e565b509098975050505050505050565b6000806040838503121561262c57600080fd5b823567ffffffffffffffff81111561264357600080fd5b61264f85828601612441565b95602094909401359450505050565b80356001600160a01b038116811461267557600080fd5b919050565b60006020828403121561268c57600080fd5b6126958261265e565b9392505050565b600080604083850312156126af57600080fd5b50508035926020909101359150565b6001600160a01b03831681526040602082018190526000906126e290830184612539565b949350505050565b6000602082840312156126fc57600080fd5b5035919050565b6001600160a01b038616815260a06020820181905260009061272790830187612539565b82810360408401526127398187612539565b94151560608401525050608001529392505050565b60006020828403121561276057600080fd5b813567ffffffffffffffff81111561277757600080fd5b6126e284828501612441565b6000806040838503121561279657600080fd5b61279f8361265e565b9150602083013567ffffffffffffffff8111156124ff57600080fd5b600080604083850312156127ce57600080fd5b823567ffffffffffffffff808211156127e657600080fd5b6127f286838701612441565b9350602085013591508082111561280857600080fd5b5061250b85828601612441565b6020815260006126956020830184612539565b634e487b7160e01b600052603260045260246000fd5b600181811c9082168061285257607f821691505b60208210810361287257634e487b7160e01b600052602260045260246000fd5b50919050565b60008083546128868161283e565b6001828116801561289e57600181146128b3576128e2565b60ff19841687528215158302870194506128e2565b8760005260208060002060005b858110156128d95781548a8201529084019082016128c0565b50505082870194505b50929695505050505050565b601f82111561293a576000816000526020600020601f850160051c810160208610156129175750805b601f850160051c820191505b8181101561293657828155600101612923565b5050505b505050565b815167ffffffffffffffff8111156129595761295961242b565b61296d81612967845461283e565b846128ee565b602080601f8311600181146129a2576000841561298a5750858301515b600019600386901b1c1916600185901b178555612936565b600085815260208120601f198616915b828110156129d1578886015182559484019460019091019084016129b2565b50858210156129ef5787850151600019600388901b60f8161c191681555b5050505050600190811b01905550565b634e487b7160e01b600052601160045260246000fd5b81810381811115612367576123676129ff565b600060208284031215612a3a57600080fd5b8151801515811461269557600080fd5b602080825260159082015274151bdad95b881d1c985b9cd9995c8819985a5b1959605a1b604082015260600190565b8281526040602082015260006126e26040830184612539565b60008251612aa4818460208701612515565b9190910192915050565b6020808252601b908201527f5573657220646f6573206e6f7420686176652074686973207461670000000000604082015260600190565b604081526000612af86040830185612539565b8281036020840152612b0a8185612539565b95945050505050565b80820180821115612367576123676129ff565b600082612b4357634e487b7160e01b600052601260045260246000fd5b500490565b8082028115828204841417612367576123676129ff565b606081526000612b726060830186612539565b60208301949094525060400152919050565b604081526000612b976040830185612539565b9050826020830152939250505056fea264697066735822122060eb21afb844e4abb07739f65df5ea6d0e350aff8b35a4d998cff2abe26fc11164736f6c63430008180033",
  "linkReferences": {},
  "deployedLinkReferences": {}
}